:020000000F28C7
:10000800DF0003088312A6000408A7000A08A80056
:100018005E08A900AB288316FF2390008301C62839
:1000280082308312A500DD30A400A40B1928A50B8B
:1000380019281E2882308312A500DD30A400A40BE5
:100048002328A50B2328282882308312A500DD3019
:10005800A400A40B2D28A50B2D283228823083124A
:10006800A500DD30A400A40B3728A50B37283C28B1
:1000780082308312A500DD30A400A40B4128A50B13
:100088004128462882308312A500DD30A400A40B45
:100098004B28A50B4B28502882308312A500DD3051
:1000A800A400A40B5528A50B55285A288230831282
:1000B800A500DD30A400A40B5F28A50B5F286428E9
:1000C80082308312A500DD30A400A40B6928A50B9B
:1000D80069286E2882308312A500DD30A400A40BA5
:1000E8007328A50B7328782808008B130310003099
:1000F8000318013083169500813081000730831280
:100108009900FF308500C83083168500FF308312C0
:10011800850003100030031801308B0083169615F4
:1001280083128B1563000511142083128510142087
:1001380083120510142083120512142083128512CD
:1001480014201420BB20BB20BB208A280F280310B2
:100158000030031801308B002908DE0028088A00C7
:100168002708840026088300DF0E5F0E090082300E
:100178008312A500DD30A400A40BC028A50BC0285D
:0A018800C5280800AA0183017928A8
:02400E008431FB
:00000001FF
